:100000000C9462000C948A000C948A000C948A0070
:100010000C948A000C948A000C948A000C948A0038
:100020000C948A000C948A000C948A000C948A0028
:100030000C948A000C948A000C948A000C948A0018
:100040000C94FD020C948A000C94CB020C94A50233
:100050000C948A000C948A000C948A000C948A00F8
:100060000C948A000C948A00000000080002010031
:100070000003040700000000000000000000000072
:1000800023002600290000000000250028002B0086
:1000900000000000240027002A00040404040404D3
:1000A0000404020202020202030303030303010227
:1000B00004081020408001020408102001020408F6
:1000C0001020090511241FBECFEFD8E0DEBFCDBF41
:1000D00011E0A0E0B1E0E2E3FBE002C005900D9288
:1000E000AA32B107D9F721E0AAE2B1E001C01D921E
:1000F000A43DB207E1F710E0C2E6D0E004C02197CA
:10010000FE010E949105C136D107C9F70E948C03F8
:100110000C9497050C94000090E0FC01E255FF4F11
:10012000249186569F4FFC018491882399F090E09A
:10013000880F991FFC01E057FF4FA591B491FC0176
:10014000EA57FF4F859194918FB7F894EC91E22B89
:10015000EC938FBF0895AF92BF92CF92DF92EF9250
:10016000FF920F931F93CF93DF936C017B018B0161
:10017000040F151FEB015E01AE18BF08C017D107B1
:1001800059F06991D601ED91FC910190F081E02D3B
:10019000C6010995892B79F7C501DF91CF911F9190
:1001A0000F91FF90EF90DF90CF90BF90AF900895A8
:1001B000FC01538D448D252F30E0842F90E0821B6D
:1001C000930B541710F0CF96089501970895FC01F2
:1001D000918D828D981761F0A28DAE0FBF2FB11D4A
:1001E0005D968C91928D9F5F9F73928F90E00895A2
:1001F0008FEF9FEF0895FC01918D828D981731F05C
:10020000828DE80FF11D858D90E008958FEF9FEFAF
:100210000895FC01918D228D892F90E0805C9F4F85
:10022000821B91098F739927089587E391E00E94BB
:10023000090121E0892B09F420E0822F089580E054
:1002400090E0892B29F00E94150181110C94000087
:100250000895FC01A48DA80FB92FB11DA35ABF4F5B
:100260002C91848D90E001968F739927848FA689B5
:10027000B7892C93A089B1898C91837080648C9309
:10028000938D848D981306C00288F389E02D8081B8
:100290008F7D80830895EF92FF920F931F93CF93EA
:1002A000DF93EC0181E0888F9B8D8C8D98131AC0B1
:1002B000E889F989808185FF15C09FB7F894EE8998
:1002C000FF896083E889F9898081837080648083F5
:1002D0009FBF81E090E0DF91CF911F910F91FF9040
:1002E000EF900895F62E0B8D10E00F5F1F4F0F73E8
:1002F0001127E02E8C8D8E110CC00FB607FCFACFA3
:10030000E889F989808185FFF5CFCE010E94290116
:10031000F1CFEB8DEC0FFD2FF11DE35AFF4FF08273
:100320009FB7F8940B8FEA89FB8980818062CFCFD9
:10033000CF93DF93EC01888D8823B9F0AA89BB891C
:10034000E889F9898C9185FD03C0808186FD0DC007
:100350000FB607FCF7CF8C9185FFF2CF808185FF28
:10036000EDCFCE010E942901E9CFDF91CF91089511
:1003700090E0FC01E859FF4F2491FC01E255FF4F4A
:100380003491FC01E656FF4FE491EE23C9F022239D
:1003900039F0233001F1A8F4213019F1223029F18C
:1003A000F0E0EE0FFF1FEA57FF4FA591B4918FB712
:1003B000F894EC91611126C030953E233C938FBF99
:1003C00008952730A9F02830C9F0243049F78091EA
:1003D00080008F7D03C0809180008F7780938000A4
:1003E000DFCF84B58F7784BDDBCF84B58F7DFBCF26
:1003F0008091B0008F778093B000D2CF8091B00011
:100400008F7DF9CF3E2BDACF1F93CF93DF93182F39
:10041000EB010E948C00209739F460E0812FDF917E
:10042000CF911F910C94B801CF3FD10511F461E039
:10043000F5CFE12FF0E0E859FF4FE491E33031F1DF
:1004400040F4E130B1F0E230E1F0C038D1057CF7A2
:10045000E4CFE73029F1E83059F1E430B1F7809189
:100460008000806280938000D0938B00C0938A00CC
:1004700004C084B5806884BDC7BDDF91CF911F9152
:10048000089584B5806284BDC8BDF7CF8091800097
:10049000806880938000D0938900C0938800EDCF5E
:1004A0008091B00080688093B000C093B300E5CF26
:1004B0008091B00080628093B000C093B400DDCF23
:1004C00042E050E062E171E087E391E00C94AB0020
:1004D000CF93DF93FC0101900020E9F73197AF0142
:1004E000481B590BBC0187E391E00E94AB00EC0173
:1004F0000E9460028C0F9D1FDF91CF9108950F9392
:100500001F9390E0FC01E255FF4F6491FC01E65619
:10051000FF4FE491F0E0EE0FFF1FE458FF4F85918D
:10052000949100E911E020E030E0462F0E9447035B
:10053000611571058105910529F06F5F7F4F8F4F20
:100540009F4F9F701F910F9108951F920F920FB6AA
:100550000F9211242F933F934F935F936F937F9349
:100560008F939F93AF93BF93EF93FF9387E391E0B4
:100570000E942901FF91EF91BF91AF919F918F91BF
:100580007F916F915F914F913F912F910F900FBE8F
:100590000F901F9018951F920F920FB60F92112473
:1005A0002F938F939F93EF93FF93E0914701F091E7
:1005B00048018081E0914D01F0914E0182FD1BC008
:1005C0009081809150018F5F8F732091510182172C
:1005D00041F0E0915001F0E0E95CFE4F958F80938F
:1005E0005001FF91EF919F918F912F910F900FBE2E
:1005F0000F901F9018958081F4CF1F920F920FB625
:100600000F9211242F933F938F939F93AF93BF9398
:1006100080912F0190913001A0913101B091320170
:1006200030912E0123E0230F2D3758F50196A11D9F
:10063000B11D20932E0180932F0190933001A09340
:100640003101B093320180912A0190912B01A09148
:100650002C01B0912D010196A11DB11D80932A019D
:1006600090932B01A0932C01B0932D01BF91AF91DA
:100670009F918F913F912F910F900FBE0F901F90E0
:10068000189526E8230F0296A11DB11DD2CFCF9257
:10069000DF92EF92FF920F931F93E82FF92F05C07F
:1006A000015011092109310961F1908196239417B4
:1006B000B9F305C0015011092109310911F19081E7
:1006C00096239413F7CFC12CD12CE12CF12C0AC026
:1006D0008FEFC81AD80AE80AF80A0C151D052E056E
:1006E0003F0579F080818623841791F36C2D7D2D51
:1006F0008E2D9F2D1F910F91FF90EF90DF90CF9047
:10070000089560E070E080E090E01F910F91FF900D
:10071000EF90DF90CF900895789484B5826084BD87
:1007200084B5816084BD85B5826085BD85B58160F5
:1007300085BD80916E00816080936E001092810073
:10074000809181008260809381008091810081602E
:1007500080938100809180008160809380008091EF
:10076000B10084608093B1008091B000816080937B
:10077000B00080917A00846080937A0080917A0042
:10078000826080937A0080917A00816080937A0001
:1007900080917A00806880937A001092C100E09185
:1007A0004701F091480182E08083E0914301F0919C
:1007B00044011082E0914501F091460180E180837F
:1007C00010924F01E0914B01F0914C0186E0808343
:1007D000E0914901F0914A01808180618083E0913C
:1007E0004901F0914A01808188608083E09149014C
:1007F000F0914A01808180688083E0914901F09105
:100800004A0180818F7D808387E00E948C0089E08F
:100810000E948C0083E00E948C0085E00E948C0086
:1008200084E00E948C008BE00E948C0080E10E949A
:100830008C0061E080E10E94B8018091B100887F66
:1008400085608093B1008BEFC82E83E0D82EE12C19
:10085000F12CC0E0D0E08FE00E947F024B018B01C1
:100860008EE00E947F026B3C23E072070CF498C07C
:10087000072E000C880B990B9B01AC012A5C3340BE
:1008800041095109AEEFB1E00E945505A70196015B
:100890000E9436052F5F310941095109C9010A96A5
:1008A000459710F430E020E0309336012093350175
:1008B00030E020E00B3C1340B4F0092C000CAA08F7
:1008C000BB08A50194012A5C334041095109AEEFF0
:1008D000B1E00E945505A70196010E9436052F5FE1
:1008E000310941095109C9010A96459710F430E0D0
:1008F00020E0309334012093330187E391E00E949C
:10090000090118161906ECF487E391E00E94E7004C
:10091000182F682F87E391E00E944B010E9460022C
:10092000123409F040C064E670E083E00E940402E3
:1009300064E670E08BE00E94040285E191E00E9491
:100940006802809135019091360161E0009709F4C9
:1009500055C00CF452C061E087E00E94B80160E02D
:1009600089E00E94B801809133019091340161E0E7
:10097000009709F449C00CF446C061E085E00E948C
:10098000B80160E084E00E94B801209709F463CFC9
:100990000E941501882309F45ECF0E9400005BCFFE
:1009A00030E020E07BCF133569F470E060E083E055
:1009B0000E94040270E060E08BE00E9404028DE17E
:1009C00091E0BDCF609135017091360177FF03C092
:1009D00071956195710983E00E9404026091330171
:1009E0007091340177FF03C07195619571098BE0B7
:1009F0000E94040283E291E0A2CF60E087E00E94BF
:100A0000B80161E0ADCF60E085E00E94B80161E02F
:100A1000B9CFE7E3F1E01382128288EE93E0A0E021
:100A2000B0E084839583A683B78384E091E09183CB
:100A3000808385EC90E09587848784EC90E09787AD
:100A4000868780EC90E0918B808B81EC90E0938B9B
:100A5000828B82EC90E0958B848B86EC90E0978B78
:100A6000868B118E128E138E148E0895052E97FB91
:100A70001EF400940E944D0557FD07D00E946005AA
:100A800007FC03D04EF40C944D05509540953095DD
:100A900021953F4F4F4F5F4F0895909580957095EA
:100AA00061957F4F8F4F9F4F08950E948205A59FAC
:100AB000900DB49F900DA49F800D911D1124089559
:100AC000A1E21A2EAA1BBB1BFD010DC0AA1FBB1F52
:100AD000EE1FFF1FA217B307E407F50720F0A21BC4
:100AE000B30BE40BF50B661F771F881F991F1A9431
:100AF00069F760957095809590959B01AC01BD015B
:100B0000CF010895A29FB001B39FC001A39F700DB4
:100B1000811D1124911DB29F700D811D1124911D05
:100B20000895EE0FFF1F0590F491E02D0994F894BD
:020B3000FFCFF5
:100B3200000000004B01AB00D80098010901E7005A
:100B4200FB000D0A0050574D203130300050574DF8
:0A0B52002030004E4F524D414C0080
:00000001FF
